:020000040800F2
:10000000FCFF0020E5150000DD150000DD150000F7
:10001000DD150000DD150000DD150000DD15000018
:10002000DD150000DD150000DD150000DD15000008
:10003000DD150000DD150000DD150000DD150000F8
:10004000DD150000DD150000DD150000DD150000E8
:10005000DD150000DD150000DD150000DD150000D8
:10006000DD150000DD150000DD150000DD150000C8
:10007000DD150000DD150000DD150000DD150000B8
:10008000DD150000DD150000DD150000DD150000A8
:10009000DD150000DD150000DD150000DD15000098
:1000A000DD150000DD150000DD150000DD15000088
:1000B000DD150000DD150000DD150000DD15000078
:1000C000DD150000DD150000DD150000DD15000068
:1000D000DD150000DD150000DD150000DD15000058
:1000E000DD150000DD150000DD150000DD15000048
:1000F000DD150000DD150000DD150000DD15000038
:10010000DD150000DD150000DD150000DD15000027
:10011000DD150000DD150000DD150000DD15000017
:10012000DD150000DD150000DD150000DD15000007
:10013000DD150000DD150000DD150000DD150000F7
:10014000DD150000DD150000DD150000DD150000E7
:1001500001480068704700BFB801002083B0CDF8A7
:1001600000E000F0FF031A09104603F00F021346E7
:1001700014E0194A02921FE0184A02921CE0184A41
:10018000029219E0174A029216E0174A029213E00F
:10019000164A029210E0164A02920DE00028E8D0BA
:1001A0000128E9D00228EAD00328EBD00428ECD0BB
:1001B0000528EDD00628EED0012212B29A40ADF803
:1001C000042002980A46BDF8041000F035F9DDF865
:1001D00000E003B0704700BF00080140000C014080
:1001E000001001400014014000180140001C0140B3
:1001F0000020014081B0194900EA010108460022AF
:100200000EE0042022E0082020E010201EE0202044
:100210001CE040201AE0802018E040F2001015E0B9
:100220000F498842EDD00F498842ECD00E498842F0
:10023000EBD00E498842EAD00D498842E9D00D49F9
:100240008842E8D00C498842E7D010460B4909683B
:1002500041EA000209490A6001B0704700FCFFFF53
:1002600000080140000C0140001001400014014052
:1002700000180140001C01400020014018100240FD
:1002800081B0CDF800E0012252B23E490A6000F28E
:1002900068010B686FF0006103EA0102144603F085
:1002A0000061C90E0B4602F00041B1F1004F02D1CE
:1002B00035490A6801E035490A6804F47021090CDF
:1002C0000E464FF6FF7104EA01010D4604F4401199
:1002D000B1F5401F0DD16FF0706102EA01010E46C9
:1002E0002A490A686FF070610A4028490A6032465C
:1002F00016E004F48011B1F5801F09D14FF003011D
:10030000B140C94302EA010141F070610A4607E0C9
:10031000610D090105FA01F1C9430A4042F070621A
:100320002BB1610D090105FA01F10A43FFE704F061
:100330000041B1F1004F02D113490A6001E01349B5
:100340000A6040F2000A81464FEA8A0109EB010186
:100350000968B1F1FF3F10D009F134014FEA8A0377
:10036000C91809680A4609EB0301096808461146DD
:10037000FFF7F4FE0AF1010AE6E7DDF800E001B05C
:10038000704700BF000342421C00014004000140CE
:1003900082B0CDF800E0034619460191FFF7D8FE80
:1003A00040F2E83100FB01F201990A601F49097827
:1003B000C1F30311C8B21E4909180878C0B21A1D4A
:1003C0001968C140116019490988C1F3022188B236
:1003D000174909180878C0B203F20802191D096804
:1003E000C140116011490988C1F3C22188B2104986
:1003F00009180878C0B203F20C02191D0968C1403F
:1004000011600A490988C1F3813188B20949091884
:100410000978C8B203F2100203F20C010968B1FBBB
:10042000F0F11160DDF800E002B070470410024006
:100430008C1A0000EC09000081B0CDF800E08CB20D
:100440001546774B00EA03031E461846FFF7D2FE17
:10045000B4F1FF0F0CD1734B9D4203D14FF03333F6
:100460003360D9E0422D03D14FF044333360D3E001
:100470004FF6FF739C4214D16A4B9D4207D14FF057
:1004800033333360341D4FF033332360C4E0422DE7
:1004900007D14FF044333360341D4FF044332360B1
:1004A000BAE00021002005F001030BB100211DE09E
:1004B00005F0020333B105F4C0730BB1082100E06D
:1004C000042113E005F0040333B105F020030BB160
:1004D000042100E0002109E005F0080333B105F034
:1004E00020030BB10C2100E00821FFE74E4B05EA89
:1004F00003030BB1032009E005F400730BB10220E4
:1005000004E005F480630BB10120FFE705F00C0364
:100510000BB10143FFE704F0FF039BB2002B3BD07C
:10052000376800201FFA84F832462E4608282CD25D
:100530004FF0010303FA00F408EA0403A34222D1B6
:1005400085004FF00F03AB40DB4307EA030401FAD9
:1005500005F344EA03031D4606F48173B3F5817F76
:1005600005D102F214044FF001038340236006F02A
:100570008203822B05D102F210044FF00103834065
:1005800023602F46FFE7401CD0E717601FFA88F072
:100590000F463146164602E00F462946A0B2B0F19A
:1005A000FF0F39D9331DD3F800800022082A30D23A
:1005B00002F208044FF0010303FA04F400EA040312
:1005C000A34224D195004FF00F03AB40DB4308EA70
:1005D000030807FA05F348EA030801F48173B3F549
:1005E000817F07D106F2140502F208044FF00103DF
:1005F000A3402B6001F08203822B07D106F2100585
:1006000002F208044FF00103A3402B60FFE7521CE5
:10061000CCE7331DC3F80080DDF800E001B070477F
:1006200000FCFFFF140008000008080089B0CDF8A6
:1006300000E0834698B28C46BDF824100A9E04ACB4
:10064000ADF80410ADF808002046FFF7A1FEBDF894
:100650000800BDF80410644CA34512D101256DB209
:10066000624C2560624D634C2560634D634C256090
:10067000634D644C2560644D644C2560079C039475
:1006800056E0634CA34512D101256DB2614C256043
:10069000614D584C2560614D584C2560604D594C5A
:1006A0002560604D594C2560069C039440E05E4CEB
:1006B000A34512D101256DB25C4C25605C4D4D4CBB
:1006C00025605C4D4D4C25605B4D4E4C25605B4D6F
:1006D0004E4C2560069C03942AE0594CA34512D148
:1006E00001256DB2574C2560574D424C2560574D42
:1006F000424C2560564D434C2560564D434C256079
:10070000069C039414E0544CA34511D101256DB20D
:10071000524C2560524D374C2560524D374C256068
:10072000514D384C2560514D384C2560069C039442
:10073000ADF80410ADF808003046FFF7A1FDBDF894
:100740000800BDF804100BF1100500242C600BF11B
:1007500010052C680C432C600BF10C0500242C6058
:1007600018B140F4806080B2FFE70BF10C052C68F3
:1007700004432C600BF10C060125346865F34D34FD
:1007800034600BF10C060125346865F3C304346052
:100790000BF10C060125346865F3820434600BF11B
:1007A000140500242C60039D192465434FEA8C0432
:1007B000B5FBF4F76424B7FBF4F42601350964248F
:1007C0006C433C1B240104F232056424B5FBF4F4B1
:1007D00004F00F0446EA04040BF10805A4B22C60EF
:1007E000DDF800E009B070470038014038034242AC
:1007F00001090000BC010020B1120000A40100208A
:10080000C9120000A001002031100000C00100202A
:1008100000440040C4034242E508000049100000C3
:10082000611000001910000000480040C803424257
:1008300091080000D10F000001100000E90F000036
:10084000004C0040CC034242AD080000E110000023
:10085000F91000007910000000500040D00342421F
:10086000C908000091100000C9100000111100001B
:1008700081B0ADF800100146BDF800000B68C3F36D
:10088000C01202B9FAE70A1D106001B07047FFFFFD
:1008900081B0CDF800E081B20348FFF7E9FFDDF851
:1008A00000E001B0704700BF0048004081B0CDF8C3
:1008B00000E081B20348FFF7DBFFDDF800E001B0A4
:1008C000704700BF004C004081B0CDF800E081B21D
:1008D0000348FFF7CDFFDDF800E001B0704700BF2F
:1008E0000050004081B0CDF800E081B20348FFF72E
:1008F000BFFFDDF800E001B0704700BF00440040DA
:1009000081B0CDF800E081B20348FFF7B1FFDDF818
:1009100000E001B0704700BF0038014081B0CDF861
:1009200000E0019D2C4610B408B493B28AB201468F
:100930000348FFF77BFE02B0DDF800E001B070472E
:100940000044004081B0CDF800E0019D2C4610B479
:1009500008B493B28AB201460348FFF767FE02B0BB
:10096000DDF800E001B070470038014081B0CDF8FB
:1009700000E0044A89B2FFF75FFDDDF800E001B056
:10098000704700BF1400080081B0CDF800E04FF0C0
:10099000420289B2FFF750FDDDF800E001B0704778
:1009A00081B0CDF800E0019D2C4610B408B493B29C
:1009B0008AB201460348FFF739FE02B0DDF800E0D5
:1009C00001B070470048004001490860704700BF0F
:1009D0009C81214201490860704700BF9401214277
:1009E00081B00168C1F3801001B0704702040608AD
:1009F00042F6DF67C0F200077F1EFDD100BF00BFD7
:100A000000BF00BF00BF704701490860704700BFCA
:100A10008C01224201490860704700BF9881214241
:100A200001490860704700BF800121420149086008
:100A3000704700BFB001224201490860704700BF03
:100A4000A881224201490860704700BFA08122426C
:100A500001490860704700BFA481224281B001684B
:100A6000C1F3401001B0704701490860704700BFF2
:100A7000B081224201490860704700BFB0012242A4
:100A800001490860704700BF948122420149086013
:100A9000704700BFB081224201490860704700BF23
:100AA0009881224201490860704700BFAC01224290
:100AB00001490860704700BF9C81214281B00268F3
:100AC000C2F3401101B9FAE7011D096888B201B00B
:100AD0007047FFFF01490860704700BF98812142BD
:100AE00001490860704700BFA8012242014908601F
:100AF000704700BFB881224281B0CDF800E00949BB
:100B000002B440F2000340F2000240F20001FFF79D
:100B100019FF01B0044A05490A600020DDF800E031
:100B200001B07047C019000001090000A8010020B1
:100B300081B0CDF800E0094902B440F2000340F270
:100B4000000240F20001FFF7E9FE01B0044A054946
:100B50000A600020DDF800E001B070475419000081
:100B6000E5080000A801002081B0CDF800E0017880
:100B7000CCB2A0B2034C2468A0470020DDF800E00E
:100B800001B07047A801002081B0CDF800E009490C
:100B900002B440F2000340F2000240F20001FFF70D
:100BA000BDFE01B0044A05490A600020DDF800E0FE
:100BB00001B0704754190000E5080000A8010020AA
:100BC00081B0CDF800E0A9E0012905D140F2100183
:100BD0006548FFF7D9FE04E040F210016248FFF7D4
:100BE000C5FEBBE0012905D140F204015F48FFF7D3
:100BF000CBFE04E040F204015C48FFF7B7FEADE035
:100C0000012905D142F200015948FFF7BDFE04E079
:100C100042F200015648FFF7A9FE9FE0012905D1E5
:100C200040F200415148FFF7AFFE04E040F20041BE
:100C30004E48FFF79BFE91E0012905D140F60001E7
:100C40004A48FFF7A1FE04E040F600014748FFF7DD
:100C50008DFE83E0012905D141F200014348FFF7F1
:100C600093FE04E041F200014048FFF77FFE75E08B
:100C7000012905D140F201013B48FFF785FE04E060
:100C800040F201013848FFF771FE67E0012905D104
:100C900040F200413648FFF777FE04E040F20041A1
:100CA0003348FFF763FE59E0012905D140F20021E6
:100CB0002F48FFF769FE04E040F200212C48FFF7BF
:100CC00055FE4BE0012905D140F200112848FFF7FD
:100CD0005BFE04E040F200112548FFF747FE3DE0CF
:100CE000012905D140F240012248FFF74DFE04E002
:100CF00040F240011F48FFF739FE2FE0012905D1DE
:100D000040F280011B48FFF73FFE04E040F2800103
:100D10001848FFF72BFE21E0012020E000283FF4D7
:100D200053AF01283FF45EAF02283FF469AF0328B8
:100D30003FF474AF04283FF47FAF05283FF48AAF37
:100D400006283FF495AF0728A0D00828ACD0092882
:100D5000B8D00A28C4D00B28D0D0DDE70020DDF8B9
:100D600000E001B0704700BF0008014000100140E2
:100D700000140140000C014081B0CDF800E0A9E072
:100D8000012905D140F220016548FFF7FDFD04E08F
:100D900040F220016248FFF7E9FDBBE0012905D1DF
:100DA00040F208015F48FFF7EFFD04E040F2080160
:100DB0005C48FFF7DBFDADE0012905D144F20001FD
:100DC0005948FFF7E1FD04E044F200015648FFF7FF
:100DD000CDFD9FE0012905D140F200415148FFF7C8
:100DE000D3FD04E040F200414E48FFF7BFFD91E023
:100DF000012905D140F600014A48FFF7C5FD04E08E
:100E000040F600014748FFF7B1FD83E0012905D115
:100E100041F200014348FFF7B7FD04E041F2000151
:100E20004048FFF7A3FD75E0012905D141F200011B
:100E30003D48FFF7A9FD04E041F200013A48FFF701
:100E400095FD67E0012905D140F600013648FFF71E
:100E50009BFD04E040F600013348FFF787FD59E0B1
:100E6000012905D140F240012F48FFF78DFD04E034
:100E700040F240012C48FFF779FD4BE0012905D1F4
:100E800040F220012848FFF77FFD04E040F22001F6
:100E90002548FFF76BFD3DE0012905D140F24001F7
:100EA0002248FFF771FD04E040F240011F48FFF7C0
:100EB0005DFD2FE0012905D140F280011B48FFF7BD
:100EC00063FD04E040F280011848FFF74FFD21E088
:100ED000012020E000283FF453AF01283FF45EAF2B
:100EE00002283FF469AF03283FF474AF04283FF4AD
:100EF0007FAF05283FF48AAF06283FF495AF072857
:100F0000A0D00828ACD00928B8D00A28C4D00B2813
:100F1000D0D0DDE70020DDF800E001B0704700BF71
:100F2000000801400010014000140140000C014085
:100F300081B0CDF800E0094902B440F2000340F26C
:100F4000000240F20001FFF72BFD01B0044A054901
:100F50000A600020DDF800E001B07047E8180000EA
:100F600091080000A801002001490860704700BFF7
:100F70008801224201490860704700BF9001214268
:100F800001490860704700BFB481224201490860EE
:100F9000704700BFAC01224201490860704700BFA2
:100FA000A801224200F208010A6806490A60011DF0
:100FB0000A6805490A6000F218010A6803490A60D4
:100FC000704700BFAC010020B0010020B401002038
:100FD00081B0CDF800E00348FFF770FDDDF800E0D8
:100FE00001B070470048004081B0CDF800E00348F0
:100FF000FFF7F6FCDDF800E001B070470048004064
:1010000081B0CDF800E00348FFF728FDDDF800E0EF
:1010100001B070470048004081B0CDF800E00348BF
:10102000FFF7DEFCDDF800E001B07047004400404F
:1010300081B0CDF800E00348FFF7D2FCDDF800E016
:1010400001B070470038014081B0CDF800E003489E
:10105000FFF734FDDDF800E001B0704700440040C8
:1010600081B0CDF800E00348FFF7F8FCDDF800E0C0
:1010700001B070470044004081B0CDF800E0034863
:10108000FFF7AEFCDDF800E001B07047004C004017
:1010900081B0CDF800E00348FFF710FDDDF800E077
:1010A00001B070470050004081B0CDF800E0002052
:1010B00000F0A8F8FFF79CFC012000F0A3F8DDF891
:1010C00000E001B07047FFFF81B0CDF800E00348B9
:1010D000FFF7C4FCDDF800E001B0704700500040AD
:1010E00081B0CDF800E00348FFF7E8FCDDF800E050
:1010F00001B07047004C004081B0CDF800E00348DB
:10110000FFF7ACFCDDF800E001B07047004C004098
:1011100081B0CDF800E00348FFF762FCDDF800E0A5
:1011200001B070470050004081B0CDF800E05FFA98
:1011300081F95FFA82FA0FE05FFA8AF15FFA89F0CB
:10114000FFF73EFD0DE05FFA8AF15FFA89F0FFF7E5
:1011500013FE06E0012004E00028EDD00128F2D0C3
:10116000F8E7DDF800E001B07047FFFF81B0CDF88F
:1011700000E020B10120064C2468A04703E00020D5
:10118000034C2468A047DDF800E001B0704700BFC1
:10119000B401002081B0CDF800E020B10120064C60
:1011A0002468A04703E00020034C2468A047DDF832
:1011B00000E001B0704700BFB001002081B0CDF861
:1011C00000E011E00846FFF7B3FE16E00846FFF71F
:1011D000DBFC12E00846FFF78FFC0EE00846FFF745
:1011E000A7FC0AE0012008E00028EBD00128EDD0A0
:1011F0002028EFD03028F1D0F4E7DDF800E001B08E
:101200007047FFFF81B0CDF800E020B10120064C0F
:101210002468A04703E00020034C2468A047DDF8C1
:1012200000E001B0704700BFAC01002081B0CDF8F4
:1012300000E0FFF7B7FEDDF800E001B07047FFFF08
:1012400083B0CDF800E0024610460D228DF808204C
:101250000A228DF809201FE0FFF786FC23E00278C0
:101260002AB10190FFF780FC0198401CF7E71AE0D3
:1012700002782AB10190FFF777FC0198401CF7E74C
:1012800002AA1046FFF770FC0DF109021046FFF7A5
:101290006BFC08E0062007E00029DDD00129DED044
:1012A0000229E5D0F6E70020DDF800E003B0704742
:1012B00081B0CDF800E00348FFF700FCDDF800E066
:1012C00001B070470038014081B0CDF800E003481C
:1012D000FFF7C4FBDDF800E001B0704700380140C3
:1012E00081B0CDF800E012480221FFF7A9FF1148B4
:1012F0000221FFF7A5FF10480221FFF7A1FF0F48C9
:101300000221FFF79DFF0E480221FFF799FF0D48CC
:101310000221FFF795FF0C480221FFF791FF0B48D0
:101320000221FFF78DFFDDF800E001B0704700BF3C
:10133000390000203A0000205700002077000020EC
:1013400094000020B3000020D2000020F100002013
:1013500081B01CF8019B0BF8019BBBEB0A0FF8D185
:1013600001B0704781B01548006840F00101134892
:101370000160134913480160104801681248014098
:101380000E4801600D4801686FF4802001400B4851
:1013900001600C4801686FF4FE00014009480160DB
:1013A000064801686FF0A0500140044801604FF00A
:1013B00000010648016001B0704700BF0010024004
:1013C0000000FFF004100240FFFFF6FE2C10024068
:1013D00081B04FF000094FF0000CBDEB0A0F04DCA8
:1013E000BDEB0B0F01DBD446EA464BF8049BBBEB8D
:1013F0000A0FFAD1BCEB0A0F05DDE246D9F800B0BE
:101400000BF1040BF1E701B07047FFFF81B0CDF89D
:1014100000E0334C2468A04732490870C4B2002C65
:1014200000F05A80304C2468A0472E4908703AE0FA
:101430000020FFF7E7FE2D480221FFF701FF4BE0F8
:101440000120FFF7DFFE2A480221FFF7F9FE43E003
:101450000020FFF79FFEFFF727FE26480221FFF737
:10146000EFFE39E00120FFF795FEFFF71DFE224851
:101470000221FFF7E5FE2FE00020FFF777FEFFF7E0
:1014800013FE1E480221FFF7DBFE25E00120FFF7D7
:101490006DFEFFF709FE1A480221FFF7D1FE1BE09F
:1014A000FFF71EFF18E00F4800786D28C0D00D48E8
:1014B00000786528C4D00B4800783028C8D0094887
:1014C00000783128CED0074800782D28D4D00548A0
:1014D00000782B28DAD0E3E7DDF800E001B07047B0
:1014E000A00100209D010020A4010020F2000020A6
:1014F0000A010020240100203E0100206B01002091
:1015000084010020FFFFFFFF81B0CDF800E0002242
:1015100001210020FFF708FE002202210020FFF732
:1015200003FE002206210020FFF7FEFD42F280515B
:101530002020FFF743FE09480221FFF781FE49F60C
:10154000FF67C0F2240700BF00BF7F1EFDD100BFB0
:1015500000BF00BFDDF800E001B0704700000020D0
:1015600081B0CDF800E01648FFF760FE44F67F77C3
:10157000C0F2120700BF00BF7F1EFDD100BF00BF39
:1015800000BF0120FFF73EFE0020FFF7EFFD002027
:10159000FFF700FE0B480221FFF752FE48F67F5787
:1015A000C0F25B0700BF00BF7F1EFDD100BF00BFC0
:1015B00000BFFFF795FEDDF800E001B0704700BF07
:1015C0002C1A00001800002081B002490248016076
:1015D00001B0704740190100B801002081B0FEE75A
:1015E00001B0704700F00EF800F098FAFFF7ECFF3A
:1015F00000F054FAFFF788FFFFF7B2FFFFF706FF8E
:10160000FCE7FEE781B0CDF800E0464A464B474C88
:1016100047494BF68030814206D94648006840F081
:1016200002014448016011E045F6C050814206D9EC
:101630004048006840F001013E48016006E03D4836
:1016400001686FF0070001403A480160FFF78AFE29
:101650003948036039480460394802EA00013948D2
:10166000016002F0010040B119463648006800F000
:101670000200002800D1F8E700E0194602F48030AB
:1016800040B10B462F48006800F40030002800D11C
:10169000F8E700E00B4602F0805068B12948006886
:1016A00040F08051274801602648006800F0005053
:1016B000002800D1F8E7FFE702F0806078B1214808
:1016C000006840F080611F48016011461A461D48BD
:1016D000006800F00060002800D1F8E701E0114642
:1016E0001A4601F0807070B11648006840F08071B1
:1016F0001448016011461348006800F0007000B9FA
:10170000F9E70A46FFE70C48006800F00C0190007A
:1017100000F00C00814200D0F5E7DDF800E001B0F8
:10172000704700BF8100010502841D0044060100CE
:101730004019010000200240041002402C10024019
:10174000FFFF0F00001002402A2A2A20496E697408
:1017500069616C697A696E672E2E2E202A2A2A000A
:101760002A2A20417564696F20416D7020352069F7
:101770007320696E697469616C697A6564202A2ACC
:1017800000002A2A206D20202D204D7574657320BD
:10179000746865206F757470757473202A2A002A26
:1017A0002A206520202D205475726E73206F6E20C4
:1017B000746865206F757470757473202A2A002A06
:1017C0002A203020202D204244204D6F6465207354
:1017D000656C656374696F6E202A2A002A2A20319D
:1017E00020202D2031535057204D6F6465207365A4
:1017F0006C656374696F6E202A2A002A2A202D20C6
:10180000202D2032306442206761696E2073656C40
:10181000656374696F6E202A2A002A2A202B2020F3
:101820002D2032366442206761696E2073656C65D5
:101830006374696F6E202A2A00002A2A204F75746B
:101840007075747320617265206D75746564202AEB
:101850002A002A2A204F757470757473206172658E
:1018600020656E61626C6564202A2A002A2A204263
:1018700044204D6F64652069732073656C656374E3
:101880006564202A2A002A2A204C6F772D49646C2F
:10189000652D43757272656E742031535057204D1B
:1018A0006F64652069732073656C6563746564207B
:1018B0002A2A002A2A204761696E2076616C7565A4
:1018C0002069732032306442202A2A002A2A2047C5
:1018D00061696E2076616C756520697320323664AB
:1018E00042202A2A00FFFFFF3800000039000000D4
:1018F000FFFFFFFF000000000000000000000000EC
:1019000000000000000000000000000000000000D7
:1019100000000000000000000000000018080000A7
:10192000180000000000000000000000000000009F
:1019300000000000000000000000000000000000A7
:101940000000000000000000000000000000000097
:10195000300014083500000036000000FFFFFFFFD4
:101960000000000000000000000000000000000077
:101970000000000000000000000000000000000067
:10198000000000000000000018080000180000001F
:101990000000000000000000000000000000000047
:1019A0000000000000000000000000000000000037
:1019B0000000000000000000000000000800000817
:1019C000090000000A000000FFFFFFFF0000000008
:1019D0000000000000000000000000000000000007
:1019E00000000000000000000000000000000000F7
:1019F00000000000180800001800000000000000AF
:101A000000000000000000000000000000000000D6
:101A100000000000000000000000000000000000C6
:101A2000000000000000000004000000750F00002E
:101A3000690F0000810F0000990F00008D0F00005A
:101A40002D0A0000210A0000390A0000510A000096
:101A5000450A0000150A0000C9090000FFFFFFFF4A
:101A6000FFFFFFFFFFFFFFFFFFFFFFFFFFFFFFFF86
:101A7000FFFFFFFFFFFFFFFFFFFFFFFFFFFFFFFF76
:101A8000FFFFFFFFFFFFFFFFFFFFFFFF0000000062
:101A900001020304010203040607080900B5DFF888
:101AA00014B0DFF814A0DFF814C0FFF751FC00BD3C
:101AB000704700BF000000209D0100204817000073
:101AC000FFFFFFFFFFFFFFFFFFFFFFFFFFFFFFFF26
:101AD000FFFFFFFFFFFFFFFFFFFFFFFFFFFFFFFF16
:101AE000FFFFFFFFFFFFFFFFFFFFFFFFFFFFFFFF06
:101AF000FFFFFFFFFFFFFFFFFFFFFFFFFFFFFFFFF6
:101B0000FFFFFFFFFFFFFFFFFFFFFFFFFFFFFFFFE5
:101B1000FFFFFFFFFFFFFFFFFFFFFFFF00B5DFF845
:101B200010B0DFF810A0FFF753FC00BD704700BFF6
:101B300000000020C4010020FFFFFFFFFFFFFFFFA8
:00000001FF
